---
http_interactions:
- request:
    method: post
    uri: http://bitcoinrpc:fb56840652f0196e911981e3993a158d@127.0.0.1:18332/
    body:
      encoding: UTF-8
      string: '{"method":"createmultisig","params":[2,["0441d662fb5fdfc12299114e1592c93fc5e94d4d53eaaee6079db94ea5c92fd50842fa77c554727dcd570f73db95ee2f353d870959a80f3c0c1b6d170b6dbd0542","0465c1574a9124e1aacd6be794a7c023f86cffd3ade6015115f1b306061fe805dd3b741fb111f35a2b0bb90bba590704b2accaa02fd348aeec0482cc0f36dc7d80","043dbf4e2210a190aeddbe80778647a7348ba1cbe5b4405a0145d02037d454ad2879900580d7842c106fffc6ff6e71266a1137c8e8ed81962920cb1f42906354f3"]],"id":"jsonrpc"}'
    headers:
      Accept-Encoding:
      - gzip;q=1.0,deflate;q=0.6,identity;q=0.3
      Accept:
      - '*/*'
      User-Agent:
      - Ruby
      Content-Type:
      - application/json
  response:
    status:
      code: 200
      message: OK
    headers:
      Date:
      - Fri, 22 Nov 2013 16:14:50 +0000
      Connection:
      - keep-alive
      Content-Length:
      - '509'
      Content-Type:
      - application/json
      Server:
      - bitcoin-json-rpc/v0.8.2-788-g96aaf00-beta
    body:
      encoding: UTF-8
      string: |
        {"result":{"address":"2NCJwNct2SVE5VwdrPXmnek59kCfdgCpxeF","redeemScript":"52410441d662fb5fdfc12299114e1592c93fc5e94d4d53eaaee6079db94ea5c92fd50842fa77c554727dcd570f73db95ee2f353d870959a80f3c0c1b6d170b6dbd0542410465c1574a9124e1aacd6be794a7c023f86cffd3ade6015115f1b306061fe805dd3b741fb111f35a2b0bb90bba590704b2accaa02fd348aeec0482cc0f36dc7d8041043dbf4e2210a190aeddbe80778647a7348ba1cbe5b4405a0145d02037d454ad2879900580d7842c106fffc6ff6e71266a1137c8e8ed81962920cb1f42906354f353ae"},"error":null,"id":"jsonrpc"}
    http_version: 
  recorded_at: Fri, 22 Nov 2013 16:14:50 GMT
- request:
    method: post
    uri: http://bitcoinrpc:fb56840652f0196e911981e3993a158d@127.0.0.1:18332/
    body:
      encoding: UTF-8
      string: '{"method":"signrawtransaction","params":["01000000013d88b27e974a819d889558c0356c366e9763e95553025fd276d71afa63a4840600000000fd1401004730440220313d31bb0ea995d19b569ba1205a910f8f3f0d19e16b7bcdbe5572b085525b0b022007a9133fb055a83b67cc5f9de0be064aef58e9f763288708edc6c7aa45fee342014cc952410441d662fb5fdfc12299114e1592c93fc5e94d4d53eaaee6079db94ea5c92fd50842fa77c554727dcd570f73db95ee2f353d870959a80f3c0c1b6d170b6dbd0542410465c1574a9124e1aacd6be794a7c023f86cffd3ade6015115f1b306061fe805dd3b741fb111f35a2b0bb90bba590704b2accaa02fd348aeec0482cc0f36dc7d8041043dbf4e2210a190aeddbe80778647a7348ba1cbe5b4405a0145d02037d454ad2879900580d7842c106fffc6ff6e71266a1137c8e8ed81962920cb1f42906354f353aeffffffff0180f0fa02000000001976a9146c7f6caa5838d623721c07404ad68c6406065ac588ac00000000",[{"txid":"0684a463fa1ad776d25f025355e963976e366c35c05895889d814a977eb2883d","vout":0,"scriptPubKey":"a914d11e2f2f385efeecd30f867f1d55c0bc8a27f29e87","redeemScript":"52410441d662fb5fdfc12299114e1592c93fc5e94d4d53eaaee6079db94ea5c92fd50842fa77c554727dcd570f73db95ee2f353d870959a80f3c0c1b6d170b6dbd0542410465c1574a9124e1aacd6be794a7c023f86cffd3ade6015115f1b306061fe805dd3b741fb111f35a2b0bb90bba590704b2accaa02fd348aeec0482cc0f36dc7d8041043dbf4e2210a190aeddbe80778647a7348ba1cbe5b4405a0145d02037d454ad2879900580d7842c106fffc6ff6e71266a1137c8e8ed81962920cb1f42906354f353ae"}],["92RaYtNmVrVhCYmGDLaFEUc5t3itx4f5XooUdb1p5j3kG4UXJYa"]],"id":"jsonrpc"}'
    headers:
      Accept-Encoding:
      - gzip;q=1.0,deflate;q=0.6,identity;q=0.3
      Accept:
      - '*/*'
      User-Agent:
      - Ruby
      Content-Type:
      - application/json
  response:
    status:
      code: 200
      message: OK
    headers:
      Date:
      - Fri, 22 Nov 2013 16:14:50 +0000
      Connection:
      - keep-alive
      Content-Length:
      - '938'
      Content-Type:
      - application/json
      Server:
      - bitcoin-json-rpc/v0.8.2-788-g96aaf00-beta
    body:
      encoding: UTF-8
      string: |
        {"result":{"hex":"01000000013d88b27e974a819d889558c0356c366e9763e95553025fd276d71afa63a4840600000000fd5d01004730440220313d31bb0ea995d19b569ba1205a910f8f3f0d19e16b7bcdbe5572b085525b0b022007a9133fb055a83b67cc5f9de0be064aef58e9f763288708edc6c7aa45fee34201483045022100e0fd93c27c41a0a93b967c24bf61ca966f2ab9eb63677318974433cf32210a73022063e2e878b4bcf33c908f3af54d47e0d4878d20ab3014c2235a1d2a7e3766fc72014cc952410441d662fb5fdfc12299114e1592c93fc5e94d4d53eaaee6079db94ea5c92fd50842fa77c554727dcd570f73db95ee2f353d870959a80f3c0c1b6d170b6dbd0542410465c1574a9124e1aacd6be794a7c023f86cffd3ade6015115f1b306061fe805dd3b741fb111f35a2b0bb90bba590704b2accaa02fd348aeec0482cc0f36dc7d8041043dbf4e2210a190aeddbe80778647a7348ba1cbe5b4405a0145d02037d454ad2879900580d7842c106fffc6ff6e71266a1137c8e8ed81962920cb1f42906354f353aeffffffff0180f0fa02000000001976a9146c7f6caa5838d623721c07404ad68c6406065ac588ac00000000","complete":true},"error":null,"id":"jsonrpc"}
    http_version: 
  recorded_at: Fri, 22 Nov 2013 16:14:50 GMT
- request:
    method: post
    uri: http://bitcoinrpc:fb56840652f0196e911981e3993a158d@127.0.0.1:18332/
    body:
      encoding: UTF-8
      string: '{"method":"sendrawtransaction","params":["01000000013d88b27e974a819d889558c0356c366e9763e95553025fd276d71afa63a4840600000000fd5d01004730440220313d31bb0ea995d19b569ba1205a910f8f3f0d19e16b7bcdbe5572b085525b0b022007a9133fb055a83b67cc5f9de0be064aef58e9f763288708edc6c7aa45fee34201483045022100e0fd93c27c41a0a93b967c24bf61ca966f2ab9eb63677318974433cf32210a73022063e2e878b4bcf33c908f3af54d47e0d4878d20ab3014c2235a1d2a7e3766fc72014cc952410441d662fb5fdfc12299114e1592c93fc5e94d4d53eaaee6079db94ea5c92fd50842fa77c554727dcd570f73db95ee2f353d870959a80f3c0c1b6d170b6dbd0542410465c1574a9124e1aacd6be794a7c023f86cffd3ade6015115f1b306061fe805dd3b741fb111f35a2b0bb90bba590704b2accaa02fd348aeec0482cc0f36dc7d8041043dbf4e2210a190aeddbe80778647a7348ba1cbe5b4405a0145d02037d454ad2879900580d7842c106fffc6ff6e71266a1137c8e8ed81962920cb1f42906354f353aeffffffff0180f0fa02000000001976a9146c7f6caa5838d623721c07404ad68c6406065ac588ac00000000"],"id":"jsonrpc"}'
    headers:
      Accept-Encoding:
      - gzip;q=1.0,deflate;q=0.6,identity;q=0.3
      Accept:
      - '*/*'
      User-Agent:
      - Ruby
      Content-Type:
      - application/json
  response:
    status:
      code: 200
      message: OK
    headers:
      Date:
      - Fri, 22 Nov 2013 16:14:50 +0000
      Connection:
      - keep-alive
      Content-Length:
      - '106'
      Content-Type:
      - application/json
      Server:
      - bitcoin-json-rpc/v0.8.2-788-g96aaf00-beta
    body:
      encoding: UTF-8
      string: |
        {"result":"5ccd1736f167d479bbfd3a4df4bad61c3b49e95a07adb393a98d3f10db26a842","error":null,"id":"jsonrpc"}
    http_version: 
  recorded_at: Fri, 22 Nov 2013 16:14:50 GMT
recorded_with: VCR 2.7.0
